:100000000C9446000C9474000C9474000C947400CE
:100010000C9474000C9474000C9474000C94740090
:100020000C9474000C9474000C9474000C94740080
:100030000C9474000C9474000C9474000C94740070
:100040000C9474000C9474000C9474000C94740060
:100050000C9474000C9474000C9474000C94740050
:100060000C9474000C9474000C9474000C94740040
:100070000C9474000C9474000C9474000C94740030
:100080000C9474000C9474000C94740011241FBE22
:10009000CFEFD0E1DEBFCDBF0E9452000C945000E4
:0400A000F894FFCF02
:1000A4008FEF81BB14BA989B08C082B3803811F4D7
:1000B40012BA04C080E882BB01C012BA84EF91E096
:0600C4000E946500F0CF70
:1000CA0020E030E008C0EFECF7E03197F1F700C02C
:0E00DA0000002F5F3F4F28173907ACF3089541
:0400E8000C94000074
:00000001FF
