:100000000C944A000C94B5000C94B5000C94B50007
:100010000C94B5000C94B5000C94B5000C94B5008C
:100020000C94B5000C94B5000C94B5000C94B5007C
:100030000C94B5000C94B5000C94B5000C94B5006C
:100040000C94B5000C94B5000C94B5000C94B5005C
:100050000C94B5000C94B5000C94B5000C94B5004C
:100060000C94B5000C94B5000C94B5000C94B5003C
:100070000C94B5000C94B5000C94B5000C94B5002C
:100080000C94B5000C94B5000C94B5000100011C53
:1000900000016E0011241FBECFEFD0E1DEBFCDBF47
:1000A000ECE8F0E040E019C0B791A79137912791B3
:1000B000079107FD0EC097918791EF01F92FE82F67
:1000C0000BBF07900D92A217B307D9F7FE011BBE15
:1000D00004C01D92A217B307E1F7E339F40721F733
:0C00E0000E9476000C947400F894FFCF8E
:1000EC00CF93DF93CDB7DEB76C970FB6F894DEBF26
:1000FC000FBECDBF8CE1E0E0F1E0DE011196019086
:10010C000D928A95E1F78FEF81BB14BA00E010E0F5
:10011C0002C000E010E0F801EE0FFF1F81E090E05C
:10012C008C0F9D1FE80FF91F808182BB0F5F1F4F43
:10013C0084E690E00E94A6000E30110554F7EBCF38
:10014C0020E030E008C0EFECF7E03197F1F700C0A9
:0E015C0000002F5F3F4F28173907ACF30895BE
:04016A000C940000F1
:10016E000100020004000800100020004000800082
:0C017E00400020001000080004000200F7
:00000001FF
