:100000000C944A000C9447010C9447010C9447014E
:100010000C9447010C9447010C9447010C94470140
:100020000C9447010C9447010C9447010C94470130
:100030000C9447010C9447010C9447010C94470120
:100040000C9447010C9447010C9447010C94470110
:100050000C9447010C9447010C9447010C94470100
:100060000C9447010C9447010C9447010C944701F0
:100070000C9447010C9447010C9447010C944701E0
:100080000C9447010C9447010C9447010100010CAA
:100090000002920011241FBECFEFD0E1DEBFCDBF22
:1000A000ECE8F0E040E019C0B791A79137912791B3
:1000B000079107FD0EC097918791EF01F92FE82F67
:1000C0000BBF07900D92A217B307D9F7FE011BBE15
:1000D00004C01D92A217B307E1F7E339F40721F733
:0C00E0000E94CB000C947400F894FFCF39
:1000EC002EE021BB8330910521F134F48130910550
:1000FC0051F0029799F008958530910581F124F122
:10010C000697C1F1089581E090E00E943C0182E0E5
:10011C0090E00E942F0186E081BB089581E090E081
:10012C000E942F0182E090E00E943C0186E081BB9E
:10013C0008958CE081BB82E090E00E943C0183E05A
:10014C0090E00E942F0108958CE081BB82E090E04A
:10015C000E942F0183E090E00E943C01089581E011
:10016C0090E00E942F018AE081BB83E090E00E9426
:10017C003C01089581E090E00E943C018AE081BB43
:0A018C0083E090E00E942F01089527
:10019600CF93DF93CDB7DEB72C970FB6F894DEBFBB
:1001A6000FBECDBF8CE0E0E0F1E0DE0111960190DC
:1001B6000D928A95E1F700E010E0C801019666E02D
:1001C60070E00E94F8008C01880F991FE1E0F0E0D2
:1001D600EC0FFD1FE80FF91F808191810E947600C8
:0A01E60088EE93E00E942001E8CFAC
:1001F00097FB072E16F4009407D077FD09D00E94D4
:100200000C0107FC05D03EF4909581959F4F089511
:08021000709561957F4F089580
:10021800AA1BBB1B51E107C0AA1FBB1FA617B70724
:1002280010F0A61BB70B881F991F5A95A9F7809540
:080238009095BC01CD01089571
:1002400020E030E008C0EFECF7E03197F1F700C0B4
:0E02500000002F5F3F4F28173907ACF30895C9
:10025E0021E030E002C0220F331F8A95E2F720958D
:0A026E00309582B3282322BB0895C7
:1002780021E030E002C0220F331F8A95E2F782B3F3
:06028800282B22BB0895A3
:04028E000C940000CC
:0C0292000100020003000400050006004B
:00000001FF
