:100000000C9449000C9428010C9428010C942801AC
:100010000C9428010C9428010C9428010C942801BC
:100020000C9428010C9428010C9428010C942801AC
:100030000C9428010C9428010C9428010C9428019C
:100040000C9428010C9428010C9428010C9428018C
:100050000C9428010C9428010C9428010C9428017C
:100060000C9428010C9428010C9428010C9428016C
:100070000C9428010C9428010C9428010C9428015C
:100080000C9428010C9428010C942801010001040F
:10009000800011241FBECFEFD0E1DEBFCDBFECE862
:1000A000F0E040E019C0B791A791379127910791EF
:1000B00007FD0EC097918791EF01F92FE82F0BBF35
:1000C00007900D92A217B307D9F7FE011BBE04C01B
:1000D0001D92A217B307E1F7E139F40721F70E9457
:0A00E000E3000C947300F894FFCFC6
:1000EA008A3350F08091000190910101019690931A
:1000FA0001018093000114BC8091000190910101DB
:10010A000A976CF0809102019091030101969093F5
:10011A0003018093020110920101109200010E94D2
:10012A0019018091020190910301805D0E94C8002B
:10013A008091000190910101805D0E94C80084B500
:08014A00805D0E94C8000895C9
:10015200CF938FEF84BB15BAC0E2C5BB0E94F700F4
:10016200C5BB0E94F70080E885BB0E94F70015BA64
:100172000E94F70080EF85BB0E94F70015BA0E942B
:0E018200F70080E685BB0E94F700CF9108953C
:10019000CF93C82F85BB85B3846085BB0E94F700D1
:1001A000C295C07FC5BB85B3846085BB0E94F70044
:1001B0002FE788E391E0215080409040E1F700C0B4
:0601C0000000CF9108953C
:1001C60081B38F7781BB8FEF87BB87E085BD0E94A8
:1001D600A90084B588BB84B5805D0E94750084E65D
:0801E60090E00E940A01F5CF30
:1001EE0085B3886085BB8FEC97E00197F1F700C06F
:1001FE00000085B3877F85BB8FEC97E00197F1F701
:06020E0000C0000008958D
:1002140020E030E008C0EFECF7E03197F1F700C0E0
:0E02240000002F5F3F4F28173907ACF30895F5
:1002320015BA0E94F70081E085BB0E94F70015BA4B
:0E0242000E94F70082E085BB0E94F70008953D
:040250000C9400000A
:00000001FF
