:100000000C9446000C9452000C9464000C948400F0
:100010000C9484000C9484000C9484000C94840050
:100020000C9484000C9484000C9484000C94840040
:100030000C9484000C9484000C9484000C94840030
:100040000C9484000C9484000C9484000C94840020
:100050000C9484000C9484000C9484000C94840010
:100060000C9484000C9484000C9484000C94840000
:100070000C9484000C9484000C9484000C948400F0
:100080000C9484000C9484000C94840011241FBEF2
:10009000CFEFD0E1DEBFCDBF0E9476000C945000C0
:0400A000F894FFCF02
:1000A4001F920F920FB60F9211248F9382B3803850
:1000B40019F082B3880F82BB8F910F900FBE0F90FF
:0400C4001F901895DC
:1000C8001F920F920FB60F9211248F9382B3803133
:1000D80019F082B3869582BB8F910F900FBE0F9057
:0400E8001F901895B8
:1000EC0080EF81BB80E182BBEAE6F0E080818B602F
:0C00FC00808389B7836089BF7894FFCFB0
:040108000C94000053
:00000001FF
