:100000000C9446000C9477000C9477000C947700C5
:100010000C9477000C9477000C9477000C94770084
:100020000C9477000C9477000C9477000C94770074
:100030000C9477000C9477000C9477000C94770064
:100040000C9477000C9477000C9477000C94770054
:100050000C9477000C9477000C9477000C94770044
:100060000C9477000C9477000C9477000C94770034
:100070000C9477000C9477000C9477000C94770024
:100080000C9477000C9477000C94770011241FBE19
:10009000CFEFD0E1DEBFCDBF0E9452000C945000E4
:0400A000F894FFCF02
:1000A4008FEF81BB14BA81E082BB82B3880F82BB1D
:1000B40082E390E00E94680082B38038B1F781E067
:0C00C40082BB82E390E00E946800EFCF56
:1000D00020E030E008C0EFECF7E03197F1F700C026
:0E00E00000002F5F3F4F28173907ACF308953B
:0400EE000C9400006E
:00000001FF
