:100000000C9446000C9418010C9418010C941801DF
:100010000C9418010C9418010C9418010C941801FC
:100020000C9418010C9418010C9418010C941801EC
:100030000C9418010C9418010C9418010C941801DC
:100040000C9418010C9418010C9418010C941801CC
:100050000C9418010C9418010C9418010C941801BC
:100060000C9418010C9418010C9418010C941801AC
:100070000C9418010C9418010C9418010C9418019C
:100080000C9418010C9418010C94180111241FBE33
:10009000CFEFD0E1DEBFCDBF0E948C000C945000AA
:0400A000F894FFCF02
:1000A400CF938FEF84BB15BAC0E2C5BB0E94E200B8
:1000B400C5BB0E94E20080E885BB0E94E20015BA3D
:1000C4000E94E20080EF85BB0E94E20015BA0E9404
:0E00D400E20080E685BB0E94E200CF91089515
:1000E200CF93C82F85BB85B3846085BB0E94E20095
:1000F200C295C07FC5BB85B3846085BB0E94E20008
:100102002FE788E391E0215080409040E1F700C062
:060112000000CF910895EA
:100118000E945200109261008FEF8ABB0E94130167
:1001280086B1806486B93699FECF85B18BBB85B11F
:1001380090E00E94A40084EF91E00E94F500F0CFC7
:10014800CF93DF93EC010E940401CE016AE070E0D6
:100158000E94BA00C82F80E3860F0E94710080E3D6
:0C0168008C0F0E947100DF91CF91089570
:1001740097FB072E16F4009407D077FD09D00E9450
:10018400CE0007FC05D03EF4909581959F4F0895CD
:08019400709561957F4F0895FD
:10019C00AA1BBB1B51E107C0AA1FBB1FA617B707A1
:1001AC0010F0A61BB70B881F991F5A95A9F78095BD
:0801BC009095BC01CD010895EE
:1001C40085B3886085BB8FEC97E00197F1F700C099
:1001D400000085B3877F85BB8FEC97E00197F1F72B
:0601E40000C000000895B8
:1001EA0020E030E008C0EFECF7E03197F1F700C00B
:0E01FA0000002F5F3F4F28173907ACF3089520
:1002080015BA0E94E20081E085BB0E94E20015BA9F
:0E0218000E94E20082E085BB0E94E200089591
:0A02260081EE87B986E886B90895D5
:040230000C9400002A
:00000001FF
