:100000000C9446000C94A2000C94A2000C94A20044
:100010000C94A2000C94A2000C94A2000C94A200D8
:100020000C94A2000C94A2000C94A2000C94A200C8
:100030000C94A2000C94A2000C94A2000C94A200B8
:100040000C94A2000C94A2000C94A2000C94A200A8
:100050000C94A2000C94A2000C94A2000C94A20098
:100060000C94A2000C94A2000C94A2000C94A20088
:100070000C94A2000C94A2000C94A2000C94A20078
:100080000C94A2000C94A2000C94A20011241FBE98
:10009000CFEFD0E1DEBFCDBF0E9452000C945000E4
:0400A000F894FFCF02
:1000A4008FEF81BB14BA0F2EF8EEEF2EF3E0FF2E84
:1000B400F02DC0E0D0E000E010E0989B20C00115D6
:1000C4001105E9F4CE01019681709078992324F406
:1000D40001978E6F9F6F0196EC01019741F40F2EEB
:1000E400FAEFEF2EF12CF02D01E010E008C00F2EF6
:1000F400F8EEEF2EF3E0FF2EF02D01E010E0989BD8
:1001040005C00130110511F400E010E082B380381D
:1001140011F412BA02C080E882BBC7010E949300A6
:02012400CCCF3E
:1001260020E030E008C0EFECF7E03197F1F700C0CF
:0E01360000002F5F3F4F28173907ACF30895E4
:040144000C94000017
:00000001FF
