:100000000C9446000C948C010C948C010C948C0183
:100010000C948C010C948C010C948C010C948C012C
:100020000C948C010C948C010C948C010C948C011C
:100030000C948C010C948C010C948C010C948C010C
:100040000C948C010C948C010C948C010C948C01FC
:100050000C948C010C948C010C948C010C948C01EC
:100060000C948C010C948C010C948C010C948C01DC
:100070000C948C010C948C010C948C010C948C01CC
:100080000C948C010C948C010C948C0111241FBED7
:10009000CFEFD0E1DEBFCDBF0E94F7000C9450003F
:0400A000F894FFCF02
:1000A400EF92FF920F931F93CF93DF93EC01803174
:1000B40027E2920778F568EE73E00E941C0184E061
:1000C4000E9444010F2EF4E6EF2EF12CF02DCE0108
:1000D400B7010E941C01CB010AE010E0B8010E94A4
:1000E4001C01682F83E00E944401CE01B8010E94E4
:1000F4001C01C82FCB01B7010E941C01B8010E944A
:100104001C01682F82E00E9444016C2F81E00E9450
:10011400440133C089519C4F873E934070F56AE097
:1001240084E00E944401D195C195D1090F2EF4E6D3
:10013400EF2EF12CF02DCE01B7010E941C01CB0152
:100144000AE010E0B8010E941C01682F83E00E94BD
:100154004401CE01B8010E941C01C82FCB01B70194
:100164000E941C01B8010E941C01682F82E00E94B9
:1001740044016C2F81E00E944401DF91CF911F91D3
:080184000F91FF90EF90089528
:10018C0080E00E94660189E00E9488018FEF0E9446
:10019C00880180E00E947D0180E00E9466018AE077
:1001AC000E9488018FE00E94880180E00E947D01FE
:1001BC0080E00E9466018BE00E94880183E00E942F
:1001CC00880180E00E947D0180E00E9466018CE045
:1001DC000E94880181E00E94880180E00E947D01DC
:0201EC00089574
:1001EE00CF9381E087BB0E9472010E94C600C1E0DE
:1001FE0005C080E090E00E945200CF5FC530C8F38A
:10020E0088EE93E00E945701C1E005C081E79AEFA6
:10021E000E945200CF5FC530C8F388EE93E00E9473
:0A022E00570181E090E0CF910895A0
:1002380097FB072E16F4009407D077FD09D00E948B
:10024800300107FC05D03EF4909581959F4F0895A5
:08025800709561957F4F089538
:10026000AA1BBB1B51E107C0AA1FBB1FA617B707DC
:1002700010F0A61BB70B881F991F5A95A9F78095F8
:080280009095BC01CD01089529
:10028800CF93DF93D82FC62F80E00E9466018D2F71
:100298000E9488018C2F0E94880180E00E947D01C5
:0602A800DF91CF910895E3
:1002AE0020E030E008C0EFECF7E03197F1F700C046
:0E02BE0000002F5F3F4F28173907ACF308955B
:1002CC0098B321E030E002C0220F331F8A95E2F789
:0802DC002095292328BB089599
:1002E4008FEF87BB87B3877F87BB88B3816088BB69
:0602F40082E58DB90895BA
:1002FA0098B321E030E002C0220F331F8A95E2F75B
:06030A00292B28BB089519
:080310008FB9779BFECF089521
:040318000C94000041
:00000001FF
