:100000000C944A000C94A4000C94A4000C94A4003A
:100010000C94A4000C94A4000C94A4000C94A400D0
:100020000C94A4000C94A4000C94A4000C94A400C0
:100030000C94A4000C94A4000C94A4000C94A400B0
:100040000C94A4000C94A4000C94A4000C94A400A0
:100050000C94A4000C94A4000C94A4000C94A40090
:100060000C94A4000C94A4000C94A4000C94A40080
:100070000C94A4000C94A4000C94A4000C94A40070
:100080000C94A4000C94A4000C94A400010001930F
:1000900000014C0011241FBECFEFD0E1DEBFCDBF69
:1000A000ECE8F0E040E019C0B791A79137912791B3
:1000B000079107FD0EC097918791EF01F92FE82F67
:1000C0000BBF07900D92A217B307D9F7FE011BBE15
:1000D00004C01D92A217B307E1F7E339F40721F733
:0C00E0000E9476000C947400F894FFCF8E
:1000EC008FEF81BBC0E0D0E00EC0FE01EE0FFF1F12
:1000FC00EC0FFD1FE050FF4F808182BB818192810C
:10010C000E9495002196FE01EE0FFF1FEC0FFD1FC4
:0E011C00E050FF4F81819281892B39F7E3CFAC
:10012A0020E030E008C0EFECF7E03197F1F700C0CB
:0E013A0000002F5F3F4F28173907ACF30895E0
:040148000C94000013
:10014C00013200023200403200103200083200044A
:10015C00320040320020320001640002640040642E
:10016C000010640008640004640040640020640013
:10017C0001C80002C80040C80010C80008C800042C
:10018C00C80040C80020C80001640002640040643C
:10019C0000106400086400046400406400206400E3
:1001AC0001320002320040320010320008320004EA
:1001BC0032004032002032000119000219004019AF
:1001CC00001019000819000419004019002019002A
:0301DC0000000020
:00000001FF
