:100000000C9449000C94BE000C94BE000C94BE00ED
:100010000C94BE000C94BE000C94BE000C94BE0068
:100020000C94BE000C9475000C94BE000C94BE00A1
:100030000C94BE000C94BE000C94BE000C94BE0048
:100040000C94BE000C94BE000C94BE000C94BE0038
:100050000C94BE000C94BE000C94BE000C94BE0028
:100060000C94BE000C94BE000C94BE000C94BE0018
:100070000C94BE000C94BE000C94BE000C94BE0008
:100080000C94BE000C94BE000C94BE000100010252
:10009000800011241FBECFEFD0E1DEBFCDBFECE862
:1000A000F0E040E019C0B791A791379127910791EF
:1000B00007FD0EC097918791EF01F92FE82F0BBF35
:1000C00007900D92A217B307D9F7FE011BBE04C01B
:1000D0001D92A217B307E1F7E139F40721F70E9457
:0A00E000B5000C947300F894FFCFF4
:1000EA001F920F920FB60F9211242F938F939F9303
:1000FA0080910001909101010196909301018093F2
:10010A0000018091000190910101843F914041F4E6
:10011A0095B381E0892785BB1092010110920001F5
:10012A009F918F912F910F900FBE0F901F9018954E
:10013A0020E030E008C0EFECF7E03197F1F700C0BB
:0E014A0000002F5F3F4F28173907ACF30895D0
:100158008AEF83BD87B7806887BF78948BE085BDB9
:020168000895F8
:10016A008FEF84BB0E94AC008AE090E00E949D0061
:02017A00FBCFB9
:04017C000C940000DF
:00000001FF
