:100000000C9446000C94B0000C94B0000C94B0001A
:100010000C94B0000C94B0000C94B0000C94B000A0
:100020000C94B0000C94B0000C94B0000C94B00090
:100030000C94B0000C94B0000C94B0000C94B00080
:100040000C94B0000C94B0000C94B0000C94B00070
:100050000C94B0000C94B0000C94B0000C94B00060
:100060000C94B0000C94B0000C94B0000C94B00050
:100070000C94B0000C94B0000C94B0000C94B00040
:100080000C94B0000C94B0000C94B00011241FBE6E
:10009000CFEFD0E1DEBFCDBF0E9462000C945000D4
:0400A000F894FFCF02
:1000A4003F0006005B004F0066006D007D00070006
:1000B4007F006F0077007C0039003F0071007900F9
:1000C4008FEF81BB14BAC0E0D0E0989B09C0999B24
:1000D40007C080E090E00E948400C0E0D0E00DC042
:1000E400989B05C02196CE010E94840006C0999B6E
:1000F40004C02197CE010E9484008AEF90E00E9400
:040104009800E3CFAD
:100108008F30910570F4880F991F092E000CAA0BE7
:100118008C559F4FAF4FFC015A2F0E94A70062BB1E
:08012800089589E782BB0895E8
:1001300020E030E008C0EFECF7E03197F1F700C0C5
:0E01400000002F5F3F4F28173907ACF30895DA
:10014E0057FD04C05BBF67917791089561917191DE
:02015E00089502
:040160000C940000FB
:00000001FF
