:100000000C9446000C9472000C9480000C948E00AA
:100010000C949C000C94B6000C94B6000C94B600A2
:100020000C94B6000C94B6000C94B6000C94B60078
:100030000C94B6000C94B6000C94B6000C94B60068
:100040000C94B6000C94B6000C94B6000C94B60058
:100050000C94B6000C94B6000C94B6000C94B60048
:100060000C94B6000C94B6000C94B6000C94B60038
:100070000C94B6000C94B6000C94B6000C94B60028
:100080000C94B6000C94B6000C94B60011241FBE5C
:10009000CFEFD0E1DEBFCDBFECE8F0E040E019C02B
:1000A000B791A79137912791079107FD0EC09791BE
:1000B0008791EF01F92FE82F0BBF07900D92A21740
:1000C000B307D9F7FE011BBE04C01D92A217B307E8
:1000D000E1F7EC38F40721F70E94AA000C947000B5
:0400E000F894FFCFC2
:1000E4001F920F920FB60F9211248F9380E182BB5F
:0C00F4008F910F900FBE0F901F90189579
:100100001F920F920FB60F9211248F9380E282BB41
:0C0110008F910F900FBE0F901F9018955C
:10011C001F920F920FB60F9211248F9380E482BB23
:0C012C008F910F900FBE0F901F90189540
:100138001F920F920FB60F9211248F9380E882BB03
:0C0148008F910F900FBE0F901F90189524
:1001540080EF81BBEAE6F0E080818FEF808389B78E
:080164008F6089BF7894FFCF82
:04016C000C940000EF
:00000001FF
