:100000000C9455000C94C0010C94EC010C9400016C
:100010000C9490010C9406030C9406030C940603B4
:100020000C9406030C9406030C9406030C9406032C
:100030000C9406030C9406030C9406030C9406031C
:100040000C9406030C9406030C9406030C9406030C
:100050000C9406030C9406030C9406030C940603FC
:100060000C9406030C9406030C9406030C940603EC
:100070000C9406030C9406030C9406030C940603DC
:100080000C9406030C9406030C9406030100011063
:1000900080011002F100061002F103098003090338
:1000A0000B0007F1030B030F800011241FBECFEFDD
:1000B000D0E1DEBFCDBFECE8F0E040E019C0B79181
:1000C000A79137912791079107FD0EC097918791CE
:1000D000EF01F92FE82F0BBF07900D92A217B3077E
:1000E000D9F7FE011BBE04C01D92A217B307E1F7AA
:1000F000E93AF40721F70E9482020C947F00F894F9
:02010000FFCF2F
:100102008F929F92AF92BF92CF92DF92EF92FF9225
:100112000F931F93CF93DF935C016B01E12CF12CC2
:100122005DC0F501EE0DFF1D8081803281F42091CA
:10013200090330910A03C901880F991F880F991F7B
:10014200880F991F821B930B0E94CC0244C00E940D
:100152005C014C01C0E0D0E033C0FE01EE0FFF1F96
:10016200E80DF91D008111810130110579F480E15A
:1001720082BB8091090390910A030E94CC0212BAB9
:100182008091090390910A030E94CC02023011056A
:10019200A1F480E182BB8091090390910A039C0142
:1001A200220F331F820F931F0E94CC0212BA80913A
:1001B200090390910A030E94CC02012B21F021969F
:1001C200C630D10554F28091090390910A03880F39
:1001D200991F0E94CC028FEFE81AF80AEC14FD0472
:1001E2000CF49FCFDF91CF911F910F91FF90EF9071
:0E01F200DF90CF90BF90AF909F908F900895B8
:100200001F920F920FB60F9211240BB60F922F93DD
:100210003F934F935F936F937F938F939F93AF938E
:10022000BF93CF93EF93FF9381EF92E00E94180268
:10023000C82F8432D9F0E0910D03F0910E03E15004
:10024000FF4F8081803211F4C03281F08C2F0E94E8
:100250009E0280910D0390910E03FC01E050FF4F30
:10026000C083019690930E0380930D0380E090E08D
:1002700008C0FC01EE0FFF1FEF50FD4F11821082EE
:10028000019686309105ACF310920C0310920B038B
:10029000FF91EF91CF91BF91AF919F918F917F91FE
:1002A0006F915F914F913F912F910F900BBE0F90E7
:0802B0000FBE0F901F9018957E
:1002B80020E030E02BC09DE0929FF001939FF00D6D
:1002C8001124E05FFE4F908198131EC017C0CA0129
:1002D800880F991F6DE0629FF001639FF00D112454
:1002E800E80FF91FE05FFE4F61817281FC01E35066
:1002F800FD4F718360834F5F5F4F02C040E050E065
:100308004630510524F305C02F5F3F4F2532310594
:0803180094F28DEF92E00895CC
:100320001F920F920FB60F9211240BB60F922F93BC
:100330003F934F935F936F937F938F939F93AF936D
:10034000BF93EF93FF930E94030360910D0370919D
:100350000E0380E091E00E948100FF91EF91BF9138
:10036000AF919F918F917F916F915F914F913F914D
:100370002F910F900BBE0F900FBE0F901F901895EE
:100380001F920F920FB60F9211240BB60F922F935C
:100390003F938F939F93EF93FF9380910B039091E3
:1003A0000C03FC01EE0FFF1FEF50FD4F21E030E08A
:1003B00031832083019690930C0380930B03FF916C
:1003C000EF919F918F913F912F910F900BBE0F90C6
:0803D0000FBE0F901F9018955D
:1003D8001F920F920FB60F9211240BB60F922F9304
:1003E8003F938F939F93EF93FF9380910B0390918B
:1003F8000C03FC01EE0FFF1FEF50FD4F22E030E031
:1004080031832083019690930C0380930B03FF9113
:10041800EF919F918F913F912F910F900BBE0F906D
:080428000FBE0F901F90189504
:100430000F931F93CF93DF938C01C0E0D0E01AC0DD
:100440002DE02C9FC0012D9F900D112446E050E01F
:10045000B8018F5E9E4F0E944302882351F08DE0C9
:100460008C9FF0018D9FF00D1124E05FFE4F808185
:1004700005C02196C532D1051CF384E2DF91CF91EE
:060480001F910F91089589
:10048600CF93DF93E0E0F0E012C09F01220F331F0D
:10049600DC01A20FB31F0D90BC91A02DEB01C20F82
:1004A600D31F28813981A217B30731F43196E41797
:1004B600F5075CF381E001C080E0DF91CF910895FC
:1004C600CF938FEF84BB15BAC0E2C5BB0E94B902B9
:1004D600C5BB0E94B90280E885BB0E94B90215BA65
:1004E6000E94B90280EF85BB0E94B90215BA0E942C
:0E04F600B90280E685BB0E94B902CF9108953D
:1005040080EF81BBEAE6F0E080818FEF808389B7DA
:100514008F6089BF78940E9463020E94DB0210926C
:1005240061000E94FE0285B190E00E94F90284E617
:0805340090E00E94EA02F7CFFB
:10053C00CF93C82F85BB85B3846085BB0E94B9025D
:10054C00C295C07FC5BB85B3846085BB0E94B902D0
:10055C002FE788E391E0215080409040E1F700C004
:06056C000000CF9108958C
:1005720085B3886085BB8FEC97E00197F1F700C0E7
:10058200000085B3877F85BB8FEC97E00197F1F779
:0605920000C00000089506
:1005980020E030E008C0EFECF7E03197F1F700C059
:0E05A80000002F5F3F4F28173907ACF308956E
:1005B60015BA0E94B90281E085BB0E94B90215BA3C
:0E05C6000E94B90282E085BB0E94B90208952E
:1005D40020E030E008C0EFECF7E03197F1F700C01D
:0E05E40000002F5F3F4F28173907ACF3089532
:0A05F20090930A0380930903089513
:0A05FC0081E687B986EE86B90895FE
:0606060080EF81BB0895A6
:04060C000C9400004A
:100610002000000000000000000000000041010078
:100620000200000000000000000042020001000182
:100630000001000000000043020001000200010070
:100640000000000044020001000100000000000062
:10065000004501000000000000000000000046010D
:10066000000100020001000000000047020002003B
:10067000010000000000000048010001000100012D
:10068000000000000049010001000000000000001F
:1006900000004A0100020002000200000000004BBE
:1006A0000200010002000000000000004C010002F6
:1006B0000001000100000000004D020002000000E7
:1006C0000000000000004E020001000000000000D9
:1006D0000000004F020002000200000000000000C5
:1006E0005001000200020001000000000051020061
:1006F000020001000200000000005201000200019F
:100700000000000000000053010001000100000093
:100710000000000054020000000000000000000083
:100720000055010001000200000000000000560119
:10073000000100010002000000000057010002005B
:100740000200000000000000580200010001000249
:100750000000000000590200010002000200000039
:1007600000005A02000200010001000000000031F8
:10077000010002000200020002000000320100013C
:10078000000200020002000000330100010001002D
:10079000020002000000340100010001000100021B
:1007A000000000350100010001000100010000000F
:1007B00036020001000100010001000000370200C4
:1007C00002000100010001000000380200020002E6
:1007D00000010001000000390200020002000200D6
:1007E00001000000300200020002000200020000CE
:0107F0000008
:0207F1006400A2
:00000001FF
