:100000000C944A000C9410010C9410010C941001F3
:100010000C9410010C9410010C9410010C9410011C
:100020000C9410010C9410010C9410010C9410010C
:100030000C9410010C9410010C9410010C941001FC
:100040000C9410010C9410010C9410010C941001EC
:100050000C9410010C9410010C9410010C941001DC
:100060000C9410010C9410010C9410010C941001CC
:100070000C9410010C9410010C9410010C941001BC
:100080000C9410010C9410010C9410010100010C4F
:100090000002240011241FBECFEFD0E1DEBFCDBF90
:1000A000ECE8F0E040E019C0B791A79137912791B3
:1000B000079107FD0EC097918791EF01F92FE82F67
:1000C0000BBF07900D92A217B307D9F7FE011BBE15
:1000D00004C01D92A217B307E1F7E339F40721F733
:0C00E0000E9476000C947400F894FFCF8E
:1000EC00CF93DF93CDB7DEB72C970FB6F894DEBF66
:1000FC000FBECDBF8CE0E0E0F1E0DE011196019087
:10010C000D928A95E1F70E9401010E949D000E94C8
:10011C000101CE0101960E94D7002FE78AE196E0FB
:0E012C00215080409040E1F700C00000F6CF67
:10013A00CF938FEF84BB15BAC0E2C5BB0E94EE0015
:10014A00C5BB0E94EE0080E885BB0E94EE0015BA8E
:10015A000E94EE0080EF85BB0E94EE0015BA0E9455
:0E016A00EE0080E685BB0E94EE00CF91089566
:10017800CF93C82F85BB85B3846085BB0E94EE00F2
:10018800C295C07FC5BB85B3846085BB0E94EE0065
:100198002FE788E391E0215080409040E1F700C0CC
:0601A8000000CF91089554
:1001AE000F931F93CF93DF938C01C0E0D0E007C075
:1001BE00F801EC0FFD1F80810E94BC002196CC300F
:0E01CE00D105B4F3DF91CF911F910F910895E9
:1001DC0085B3886085BB8FEC97E00197F1F700C081
:1001EC00000085B3877F85BB8FEC97E00197F1F713
:0601FC0000C000000895A0
:1002020015BA0E94EE0081E085BB0E94EE0015BA8D
:0E0212000E94EE0082E085BB0E94EE0008957F
:040220000C9400003A
:0C02240048454C4C4F21574F524C442190
:00000001FF
