:100000000C944A000C9437010C9437010C9437017E
:100010000C9437010C9437010C9437010C94370180
:100020000C9437010C9437010C9437010C94370170
:100030000C9437010C9437010C9437010C94370160
:100040000C9437010C9437010C9437010C94370150
:100050000C9437010C9437010C9437010C94370140
:100060000C9437010C9437010C9437010C94370130
:100070000C9437010C9437010C9437010C94370120
:100080000C9437010C9437010C9437010100010CDA
:100090000002720011241FBECFEFD0E1DEBFCDBF42
:1000A000ECE8F0E040E019C0B791A79137912791B3
:1000B000079107FD0EC097918791EF01F92FE82F67
:1000C0000BBF07900D92A217B307D9F7FE011BBE15
:1000D00004C01D92A217B307E1F7E339F40721F733
:0C00E0000E9476000C947400F894FFCF8E
:1000EC00CF93DF93CDB7DEB72C970FB6F894DEBF66
:1000FC000FBECDBF8CE0E0E0F1E0DE011196019087
:10010C000D928A95E1F70E9428010E94A1000E949D
:10011C00280180E190E00E941701CE0101960E9417
:10012C00DB002FE78AE196E0215080409040E1F718
:06013C0000C00000F6CF38
:10014200CF938FEF84BB15BAC0E2C5BB0E94F20009
:10015200C5BB0E94F20080E885BB0E94F20015BA7E
:100162000E94F20080EF85BB0E94F20015BA0E9445
:0E017200F20080E685BB0E94F200CF91089556
:10018000CF93C82F85BB85B3846085BB0E94F200E6
:10019000C295C07FC5BB85B3846085BB0E94F20059
:1001A0002FE788E391E0215080409040E1F700C0C4
:0601B0000000CF9108954C
:1001B6000F931F93CF93DF938C01C0E0D0E007C06D
:1001C600F801EC0FFD1F80810E94C0002196CC3003
:0E01D600D105B4F3DF91CF911F910F910895E1
:1001E40085B3886085BB8FEC97E00197F1F700C079
:1001F400000085B3877F85BB8FEC97E00197F1F70B
:0602040000C00000089597
:10020A00CF93C82F85BB8BB38B7F8BBB0E94F20029
:10021A00C295C07FC5BB8BB38B7F8BBB0E94F2009C
:04022A00CF910895D3
:10022E008031910520F480580E94050108959C01AB
:10023E00205131092031310518F480550E940501F5
:02024E00089511
:1002500015BA0E94F20081E085BB0E94F20015BA37
:0E0260000E94F20082E085BB0E94F200089529
:04026E000C940000EC
:0C02720048454C4C4F21574F524C442142
:00000001FF
